JIU20200814Maxime Hand                   00000000300000CREt omnis  cub et unde in eveniet                                                                    Cub  JIGINxr*
GPB20200814Mariela Stanton               00000000200000CREnim quis  leo consectetur nihil corrupti non soluta placeat corporis                               CUB  yBTVH1Q*
JIP20200814Stephen Langosh               00000042000000CRRerum est  cub delectus impedit                                                                     Leo  Cw8z9Mc*
NTN20200814Anjali Hickle                 00000001650000CRVoluptatibus ut  simba adipisci quos nostrum beatae sed                                             SimbapbwkzwX*
DPO20200814Rachelle Collier              00000000810000CREx ut  leo pariatur sint nesciunt consequuntur dicta                                                Lion PpPtv7w*
TSJ20200814Heather Graham                00000000390000DRQuasi sapiente  simba doloremque quia expedita quae recusandae                                      PanthgLlTdIO*
SYO20200814Cade Gerhold                  00000001000000CRAut sit  leo dolorem odit aut cupiditate delectus ut                                                PanthSnsk3bs*
IWQ20200814Christine Gerhold             00000001450000CRAssumenda autem  panth non et animi hic                                                             LION csn1rkF*
PTF20200814Dereck Altenwerth             00000000600000CRDeleniti accusantium  lion dolores et dignissimos molestias et                                      Leo  E3ZDkKe*
UZU20200814Zechariah Mitchell            00000003000000DRMollitia enim  simba est eaque voluptatibus ipsa aliquid minima                                     PanthefNTgSV*
SZM20200814Oral Hills                    00000000300000CRVoluptatem nemo  simba quia occaecati vel vel                                                       SIMBAOhCFzUz*
OKX20200814Domenick Mosciski             00000001317700DRSaepe at  cub corrupti porro                                                                        LION oiGtroH*
PEQ20200814Sandra Kessler                00000000160000CRPossimus pariatur  simba quam vel                                                                   PANTHFsx0oxo*
DOC20200814Misty Wintheiser              00000000800000CRAut illum  cub cumque qui                                                                           Cub  pOuxrfB*
QED20200814Pat Sanford                   00000000770000DREaque voluptatum  panth rerum excepturi placeat voluptate voluptas tempora                          SIMBANidmwOk*
ZFX20200814Catharine Gleichner           00000001400000DRRatione corporis  leo ratione saepe unde eum illo                                                   Cub  pTkMgZQ*
LRQ20200814Georgiana Gusikowski          00000001170000CREa voluptas  panth laborum ipsam et suscipit cumque quam                                            PANTHW7WS1Vu*
SOP20200814Lina Sauer                    00000001000000DRIpsam deleniti  cub laborum nemo perspiciatis                                                       Lion zh19DRR*
JVC20200814Elizabeth Hackett             00000015000000CRMollitia rem  simba qui ducimus                                                                     LEO  Q0F6xxq*
ODI20200814Valentine Abernathy           00000002880000DRUt unde  lion aut quis qui                                                                          Simbay7Y6cRD*
PKT20200814Magdalena Sporer              00000000120000DREt laboriosam  leo cum voluptatum corporis odit eius                                                CUB  SCjmi3m*
NAZ20200814Alexandra Dickinson           00000002000000CRQuibusdam neque  simba fuga consequuntur et quod delectus rem qui                                   Leo  j3LP5zT*
XEO20200814Adalberto Marvin              00000000140000CRVel totam  lion asperiores vitae et quidem perspiciatis consectetur                                 PANTHS8Xjxvq*
FTY20200814Emilio Klein                  00000005000000DRNon dolore  panth est velit tempore aut sed                                                         LEO  avBMvJJ*
FOM20200814Nels Price                    00000000180000CRNostrum et  panth non quia ipsam voluptas sed                                                       SimbaWRIphYi*
WZX20200814Nedra Waters                  00000000500000DRQuis atque  lion magni at omnis exercitationem                                                      LEO  tK1dFKU*
CSP20200814Arvel Zulauf                  00000000620000CRQuo illum  cub aliquid amet vero vel                                                                PanthFY0SBtf*
HPT20200814Frederique Jenkins            00000000100000DRDolore culpa  cub et earum ut ipsum accusamus a                                                     PANTHv1qDBZO*
WUJ20200814Whitney Parker                00000003000000CRId tenetur  lion vel occaecati                                                                      SimbaWhLiSMp*
ISG20200814Alexandrine Harvey            00000000500000DRSint dolorem  panth illum voluptates dolores                                                        SIMBAmRxkVCX*
DGG20200814Domingo Jacobs                00000000728000CRUnde sed  leo a voluptate odio sunt                                                                 LION PkixH9v*
JDT20200814Irwin Nolan                   00000003140000DRIpsam quia  cub saepe soluta illo voluptatum labore                                                 PANTHi3680BP*
DFF20200814Buster Stamm                  00000001400000DREt et  cub accusantium eveniet                                                                      Cub  SY6sv1q*
PZU20200814Abbie Windler                 00000000538300CRVoluptatem maiores  cub minus facilis id                                                            LEO  fn0BBvK*
XZB20200814Leonora Bauch                 00000020000000CRSapiente dicta  lion velit beatae facere vero                                                       LEO  YO5uS4v*
UPD20200814Missouri Durgan               00000000290000CRIncidunt doloribus  cub perferendis sunt dolores                                                    SIMBAfKkFcBW*
JII20200814Ericka Cartwright             00000000380000DREt exercitationem  panth doloremque voluptate assumenda autem                                       SimbaAJiiUYx*
COF20200814Oscar Hintz                   00000000500000CRNisi laborum  lion dolores labore qui                                                               Lion ytnixSM*
UWO20200814Henry Schimmel                00000000300000CRPerferendis debitis  leo laboriosam dolores delectus quod eligendi                                  LION PnUkcWb*
DNC20200814Fanny Lang                    00000000260700CRCupiditate laboriosam  cub rerum est et eos voluptas reprehenderit repellendus                      LEO  pRI9OsH*
ULD20200814Chelsey OKon                  00000000160000DRUt praesentium  cub nostrum id et                                                                   Lion VSTs4mv*
GOD20200814Sterling Homenick             00000001150000DRAut fugit  panth dicta dolorum                                                                      SIMBAovbMWWT*
PWL20200814Percival Lynch                00000000540000CRTenetur qui  leo doloribus repellat animi                                                           PanthUBgNKds*
HOS20200814Jamie Murray                  00000000100000CRVoluptate quis  panth hic blanditiis deleniti                                                       CUB  rxtLryL*
CUJ20200814Calista Hodkiewicz            00000000120000CRCumque id  panth rerum harum corporis sunt consequuntur                                             PANTHDYqM1lc*
TPZ20200814Asha Ziemann                  00000002000000CRUt velit  leo ut a in perspiciatis odio                                                             SIMBAzM3hTkT*
ELV20200814Anissa Paucek                 00000000480000DRNecessitatibus eos  cub voluptatibus deserunt illo maxime optio suscipit                            Leo  CnlXdrz*
DNZ20200814Joseph Dickens                00000010000000DRDolorem et  leo aspernatur eos atque id repellat officia et                                         SimbaxcxrIrD*
JYU20200814Susan Wilderman               00000002140000DRVoluptas eos  panth sed consectetur quo                                                             PANTHOLBhrHi*
PCW20200814Justice Hayes                 00000006000000CRNon animi  leo cupiditate dolorum consequuntur sunt                                                 Cub  y9UGxxY*
XRF20200814Ethel Haag                    00000000150000CRError ipsum  lion iste harum sed                                                                    LION UYXv4su*
IPM20200814Lolita Haag                   00000000130000CRDolorem earum  leo quidem et ut                                                                     CUB  iF6CBsN*
VQT20200814Tatum Hilpert                 00000000450000DRDignissimos nostrum  lion deleniti eos dolor dicta velit                                            Lion JYvCyFc*
RDV20200814Trent Donnelly                00000003030000CROfficia sunt  lion est cupiditate libero tempora quisquam aut                                       Simbaar1MrkZ*
YTR20200814Mason Lehner                  00000001250000CREst ipsam  cub doloribus cum                                                                        LION GqnwPku*
KAL20200814Freddie Konopelski            00000010000000CREt earum  leo at et sint nemo                                                                       LEO  nU1VhlC*
IAE20200814Berniece Kozey                00000003000000DRSit dolore  simba ut qui aliquam enim quia quo quia                                                 SIMBAIN54yxc*
BMC20200814Betty Greenfelder             00000001160000CREveniet neque  leo voluptatem repellendus id                                                        Leo  jsDkfQV*
VCR20200814Lauryn Murray                 00000000360000CRSunt fugit  panth autem et quibusdam                                                                SimbaSUsXkKt*
IGJ20200814Morton Abshire                00000000150000DROmnis ea  simba sit ullam et deleniti non                                                           Cub  pMkwkxF*
YKQ20200814Agustin Turner                00000000300000CROccaecati aut  lion est placeat esse ipsum explicabo                                                Cub  S1UHcUi*
EMC20200814Madelynn Stanton              00000000260000DRLaudantium doloremque  cub reprehenderit dolorem dolorem voluptatibus et                            CUB  ukGkm9J*
GBM20200814Karson Steuber                00000000910000CRVel dolores  panth quo saepe dolor                                                                  PANTHC7vSOJk*
YJI20200814Glenda Johnson                00000001000000DRCorporis sit  lion porro voluptatem sed                                                             Pantht04VxHY*
RXL20200814Montana Hammes                00000000160000CRNemo eaque  simba est esse tempore vel                                                              Lion RsPXuIo*
XRP20200814Alice Murazik                 00000015000000DRSed culpa  leo eum dolor illum                                                                      LION u55juFZ*
BUU20200814Karina Abbott                 00000002890000CRBeatae fugiat  simba nulla facere hic reprehenderit dolor architecto autem                          SimbaJL8zyLr*
ZQL20200814Adrien Heathcote              00000000300000CRVero quae  cub qui dolor qui ratione assumenda                                                      LION a0JBtkL*
MIE20200814Treva Walker                  00000002000000CRUt rerum  panth perferendis repudiandae ut vel dolor                                                Leo  Ixh5pLm*
BCO20200814Ressie Altenwerth             00000002420000DRAliquid et  simba asperiores voluptates id cupiditate blanditiis fuga                               Lion biHl0KF*
TAE20200814Pascale Shields               00000014900000CRVoluptates adipisci  leo fuga dolores                                                               Leo  TsWwd8r*
GGU20200814Edna Ziemann                  00000000290000DRIure non  lion velit dolores autem minus tenetur                                                    PANTHekxsDgX*
FLY20200814Christy Towne                 00000002000000CRIure deleniti  lion fugit vel                                                                       SIMBAIGF9lqj*
LLL20200814Earline Deckow                00000000280000DRExercitationem consequatur  lion eos iste repudiandae repudiandae nemo harum                        SimbawRNwY1Q*
VBT20200814Raphaelle Yundt               00000002000000DRVoluptatum dolore  lion occaecati maiores quo quo aut                                               Cub  KBHRhHm*
UYD20200814Virginia OConner              00000001000000DRIure aut  lion praesentium aut vitae atque quia cupiditate natus                                    LEO  qUBJykN*
RWX20200814Demetris Thiel                00000000600000CRRerum sed  panth laboriosam placeat                                                                 Lion An5UOxe*
UWB20200814Jamar Lockman                 00000000150000CRAperiam quaerat  panth sit nam                                                                      CUB  c8hNxXJ*
XWE20200814Lilla Kris                    00000003600000DRQui cupiditate  simba atque voluptatibus ut qui eaque quam                                          LEO  Z5N1kxj*
EAJ20200814Orlandoeum                    00000005680000DREt nesciunt  lion sed aut rerum velit                                                               Cub  skwNyWM*
PLP20200814Rae Osinski                   00000003500000CRQuia quo  lion itaque quas voluptate quidem mollitia necessitatibus                                 Cub  T70TxTz*
LCS20200814Aglae Heaney                  00000000230000DRAut id  simba tenetur similique                                                                     Panthhrv1FkX*
AYO20200814Julian Wiza                   00000000300000CREos officiis  cub nostrum eos consequatur eum ut                                                    CUB  DftQJJt*
FGD20200814Eloise Hayes                  00000001090000CRSuscipit aut  leo architecto minima qui at tempore                                                  CUB  rr0F3PU*
ULA20200814Raheem Auer                   00000000750000DRVoluptates quis  lion est magni error suscipit sint                                                 LION ZsFkTDa*
RTL20200814Conrad Johns                  00000001000000CROmnis nihil  cub cum sed est laboriosam voluptatem esse                                             Leo  wqdUWRJ*
XMR20200814Lew Halvorson                 00000007800000CRBlanditiis aut  panth dolores voluptatibus quia odit                                                Cub  FYkDYDq*
XIO20200814Alanis Champlin               00000000520000DRDolores repellendus  simba aliquam rem iusto et vitae                                               PanthkC9DJ4R*
YKM20200814Wilbert Marvin                00000000200000CREt tempora  lion unde inventore totam soluta officia recusandae                                     PanthDFxXU4f*
VHY20200814Nora Krajcik                  00000002000000CRIste corporis  simba magni nobis beatae expedita minus velit nesciunt                               PANTHi1xgQpU*
CZQ20200814Theron McCullough             00000000660300CRMolestias animi  panth quo beatae nulla porro quasi                                                 PANTHFM1Y1gn*
MYK20200814Natalie Casper                00000005500000CRVoluptas nisi  panth et ullam sunt aut ea                                                           Leo  vBh4xHK*
OJN20200814Whitney King                  00000002857900DRSed sit  leo consequatur fuga ab                                                                    CUB  AGvYvbf*
RUI20200814Oren Dooley                   00000000126000DRNon laboriosam  leo suscipit tempore ex                                                             SIMBAaYVMj5C*
VZU20200814KeanuonRueden                 00000001260000DRAssumenda recusandae  leo nihil nobis voluptatem                                                    SIMBADPiLjTa*
FVZ20200814Maci Quigley                  00000015000000DRDucimus odio  panth quis modi sit distinctio laborum                                                LEO  sCuuUVR*
DMZ20200814Immanuel Grant                00000000300000CRRem et  leo commodi aliquam blanditiis                                                              PanthLwypWVh*
OGY20200814Bernita Kuvalis               00000001300000DRMolestiae iure  simba ut nostrum vitae sint                                                         LEO  foxQ6TR*
UGC20200814Alvera Ruecker                00000000444200DRQuia necessitatibus  lion rerum est quas quidem est adipisci                                        Leo  DOQfXvt*
HBY20200814Sydney Parker                 00000002000000DREa iste  cub optio tenetur voluptatem molestiae                                                     LEO  cYt7YVD*
EZU20200814Annabell Gorczany             00000001170000CREst repellendus  simba molestiae numquam fugiat beatae                                              Cub  W7RIBSi*
ANP20200814Eliseo Wilderman              00000000100000DREst itaque  panth nihil sint et similique eos nisi                                                  PanthpTIc4rU*
SSN20200814Stephania Rodriguez           00000000633200CRMollitia ratione  leo sit quis sapiente vitae                                                       LEO  UC306je*
NHJ20200814Travis Eichmann               00000003000000CREt vel  cub voluptas eos mollitia                                                                   Cub  ydnvOuM*
RVL20200814Hosea McLaughlin              00000000800000CRUt amet  leo nemo officia eum                                                                       Leo  RHkg30w*
AQW20200814Paige Maggio                  00000000310000DREius omnis  cub nam rerum nemo ut                                                                   Cub  bdK1oOM*
YHU20200814Mona White                    00000003700000CRRerum vitae  simba corporis quos molestiae earum                                                    CUB  SC6IJ7m*
XFO20200814Antoinette Shanahan           00000000760000CRMaxime numquam  simba recusandae praesentium incidunt eligendi omnis aspernatur                     CUB  jGOJVKF*
LJP20200814Leta Bradtke                  00000001470000CREum in  cub aperiam repellendus quaerat rerum deleniti voluptatibus                                 Leo  Hd1lUPd*
SLP20200814Bettieeum                     00000000666800CREt id  simba sed facilis quo dolorum                                                                Cub  rG14L1V*
OPX20200814Pedro Marvin                  00000003000000DRError ducimus  simba animi quas dolore deserunt aliquid                                             Leo  YzBviDs*
IEB20200814Shayna Stamm                  00000000180000CRQuis et  panth consequatur odit dolores aut aut voluptas                                            CUB  zuoUS1Y*
WDF20200814Ora Kozey                     00000000220000DREt eligendi  leo nesciunt sint sed est eum                                                          PanthAMyuLfn*
OHC20200814Celia Friesen                 00000001000000DROdit voluptatem  cub iste neque ratione quaerat pariatur                                            LION fZ8tJqE*
JYI20200814Maynard Pollich               00000000587300CRAutem vitae  cub omnis illo voluptatum voluptatem numquam                                           PANTHSk0VSKa*
GUW20200814Jimmy Abernathy               00000000800000DRReprehenderit nulla  simba impedit sint et consequuntur amet                                        LION s9cSiFJ*
HSR20200814Hiram Schmidt                 00000015000000CRMolestiae consequuntur  leo atque reprehenderit nisi                                                LION R4kPBQi*
MHQ20200814Gianni Haley                  00000000780000DRIste dicta  lion officia provident quaerat voluptatum eaque ducimus                                 PANTHnOJUhPY*
FPT20200814Cale Marvin                   00000000500000CRSequi autem  leo veniam non                                                                         PanthEqwznfl*
WND20200814Samara Runolfsson             00000002700000CREos rerum  lion assumenda provident exercitationem non voluptatibus suscipit                        LEO  vYN3k8D*
XLI20200814Alejandra Ullrich             00000000920000DRRepellat eius  simba libero voluptates nihil in atque                                               CUB  Atwxzxg*
NOZ20200814Piper Kunde                   00000001200000CRQuae perferendis  leo corrupti perspiciatis dolor aliquid adipisci temporibus                       Leo  ruR4DRU*
TNT20200814Noemi Ledner                  00000001000000CRNemo voluptas  lion ut adipisci eos                                                                 LEO  EcTxxwl*
AGO20200814Emory Cremin                  00000001700000DROdit numquam  panth dolores et aliquam et                                                           LEO  rhNPVRB*
QUF20200814Delores Hettinger             00000000160000CRSit consequatur  panth quod in voluptas                                                             LEO  EpT8j1n*
NRY20200814Bernadine Emard               00000001810000DRHic qui  cub eos error doloribus vero                                                               SIMBAnUrUGhM*
TSN20200814Angelita Jacobs               00000004000000DRQuas rerum  panth fugiat illum magni consequuntur temporibus minima perferendis                     CUB  S6hXjPv*
VLO20200814Liliana Rogahn                00000000157500CRFacere quis  cub illo eaque molestiae quibusdam                                                     Cub  jPofPcF*
DRA20200814Dallas Huels                  00000002730000CRDolorum repellat  cub inventore perspiciatis iste voluptates minus rerum                            CUB  PtPUkUx*
WOB20200814Franz Friesen                 00000001440000DREst molestiae  simba nam omnis sunt quia ut debitis                                                 PANTHqIQkWZP*
LUR20200814Jalon Morissette              00000003500000CRRepudiandae est  lion iure qui itaque assumenda architecto quis                                     PanthJvzkcbj*
VHK20200814Maryam DAmore                 00000002500000CRVero eius  cub necessitatibus non atque velit doloremque quos ullam                                 Cub  zYOOJ6I*
UPL20200814Rolando Hauck                 00000000100000CRIpsam a  leo distinctio sit ut ut occaecati nihil                                                   CUB  IcuQNsj*
KRV20200814Elise Price                   00000000150000DRRerum adipisci  cub sequi deleniti aliquam enim                                                     LION dIiMjmM*
VFL20200814Itzel Tromp                   00000006300000CRNostrum deleniti  simba perspiciatis vitae omnis sint                                               Lion UHUqDsa*
UPT20200814Vincenzo Smith                00000000400000CRLaborum ad  lion asperiores distinctio beatae mollitia consectetur voluptas                         Leo  qxMfIyD*
LAM20200814Jordon Hayes                  00000001000000DRUt qui  simba deserunt consequatur placeat aut architecto voluptatum nemo                           Leo  VVXmOYd*
XDI20200814Karolann Streich              00000000360000DRSit et  cub culpa corporis ratione cum voluptas consectetur occaecati                               PANTHu5C6YtP*
TLC20200814Petra Parisian                00000000600000DRQuia nostrum  cub ut nulla placeat                                                                  Lion JCtgi1p*
YFH20200814Jalen Hane                    00000001600000DRAsperiores quisquam  leo unde laboriosam blanditiis explicabo                                       CUB  pxdc5gO*
TQK20200814Macey Heathcote               00000000950000CRNon qui  lion minus voluptatem rerum vitae                                                          CUB  G5zdrSd*
ZEA20200814Howard Carroll                00000001200000DREsse dicta  panth ad accusantium officiis est natus voluptatem                                      LION lZdut9Q*
MLJ20200814Marisol Wisoky                00000004900000DRAspernatur libero  simba odit ipsa est voluptatum quaerat                                           LION N4LcHRk*
QIU20200814Vidal Johnson                 00000000830000DRNesciunt voluptatem  cub tenetur modi similique quibusdam quisquam qui                              Leo  i5oO3PW*
WSH20200814Deangelo Ernser               00000000300000DRConsequatur aliquid  cub sed libero voluptatibus dolor consequuntur                                 LION DMNpMDl*
EXC20200814Kianna Rippin                 00000001390000CRCorporis est  leo reprehenderit exercitationem                                                      Cub  j9ZxYdD*
MOJ20200814Zola Mitchell                 00000000120000DRFacilis ipsam  cub incidunt architecto doloremque                                                   PANTHZdj1f4w*
ZSK20200814Brown Bednar                  00000000890000CRLibero necessitatibus  lion officia culpa quaerat dignissimos aspernatur                            CUB  e7ZkfDV*
DSZ20200814Dena Blick                    00000010930000CROptio similique  panth nisi quidem laborum quas ut maiores                                          LION DZxzkNj*
NFB20200814Nyasia Waters                 00000000150000DRAliquam harum  leo facere sed provident omnis nulla doloremque eaque                                LEO  wOkLxLB*
CVS20200814Emmanuel Schumm               00000000150000DRIpsum corporis  leo molestias qui totam                                                             LION TiOqLxv*
QKU20200814Stefanie Schmitt              00000002400000DRQui aspernatur  simba qui consequatur voluptatem tempora veniam                                     Leo  xJkFJtZ*
TYZ20200814Webster Simonis               00000000100000CROmnis nesciunt  panth rem dolores non                                                               SIMBABDYnP3w*
INW20200814Narciso Balistreri            00000000100000CRError nobis  leo est libero                                                                         Simbaz6smGJF*
OWZ20200814Garret Cummerata              00000000286300CRPlaceat dolor  leo aliquam culpa a totam                                                            CUB  GyOW7Ou*
RIU20200814Kip Lubowitz                  00000000300000DRNon expedita  lion hic sit assumenda ipsam itaque                                                   LION cVKG3NN*
PYF20200814Ova Swaniawski                00000001100000DRId cumque  panth ut minus nam itaque                                                                LION ZQfLDWb*
MXM20200814Mattie Shanahan               00000000480000CRAut sunt  lion ipsa amet pariatur                                                                   PanthahKKlSI*
DXO20200814Charlie Raynor                00000001700000CRAmet illo  lion necessitatibus aut hic                                                              CUB  XtlPypa*
JVC20200814Ubaldo Davis                  00000001000000CRAb rerum  leo facere totam nihil sit                                                                Cub  pgb7GiC*
DLW20200814Jedidiah Hackett              00000007000000CRRerum dolore  lion vel aut nihil sunt amet                                                          CUB  GH4GFRr*
WZW20200814Leslie Gaylord                00000000100000CRIncidunt quia  lion explicabo reprehenderit ad quo quibusdam                                        SimbawZxkNlG*
QYW20200814Lester Gislason               00000008000000CRDelectus et  cub tempora modi consequatur assumenda quo non                                         LION OiwPIUa*
ZPL20200814Estell Beahan                 00000001400000CRLabore dolorem  lion excepturi omnis deleniti tempora a eos                                         Cub  xS9KHVG*
LFA20200814Emie Reichel                  00000002000000DRAmet aut  panth accusantium sint sed                                                                CUB  VY9xRXj*
QWU20200814Dayton Streich                00000000500000DROfficiis amet  cub sapiente nulla sunt                                                              LION bgoLfzL*
ARM20200814Ferne Feil                    00000001000000DRVoluptatem velit  cub et porro iste eveniet                                                         LEO  GyMFqjn*
MRG20200814Oceane Hill PhD               00000003500000DRCorporis eos  cub sequi nihil autem vero molestias                                                  LION oxBJlnK*
FYL20200814Berenice Williamson           00000003500000CRImpedit qui  leo aliquam necessitatibus eum quia                                                    SimbaTsNG10v*
OKX20200814Geovanni Pollich              00000000990000CREt amet  lion quod ea ratione omnis amet est                                                        Cub  vCnzkyQ*
NWR20200814Geo Schowalter                00000005000000DRNatus tenetur  leo labore et ratione cumque fugit                                                   Cub  Q57XlMk*
OEY20200814Ethel Hegmann                 00000001440000DRFugit et  leo nisi dolorum eius                                                                     Lion dWtw1YV*
EFD20200814Stephan Parisian              00000002000000CREt quia  leo qui omnis                                                                              Cub  W40Ykxr*
VDF20200814Cordelia Sauer                00000001300000DRQuo vel  cub voluptatibus facere autem non nam                                                      Leo  drkzRKP*
ILF20200814Jamaal Schuppe                00000000170000DREsse officiis  simba magnam odit praesentium eos quas                                               PanthFHqKxdv*
WUW20200814Yazmin Koss                   00000000150000CRRecusandae sequi  leo voluptas aut rem sequi                                                        CUB  kxxIkpS*
FCD20200814Madelyn Berge                 00000001800000CREt adipisci  panth molestiae eos laborum aut                                                        Cub  EngYybo*
SZO20200814Kelton Flatley                00000001300000DRCulpa aut  leo iure aliquid aperiam consequatur harum                                               LION nrqzuXC*
VAP20200814Pansy Bogan                   00000004000000CRAut corporis  simba placeat sunt enim eaque fugit nesciunt                                          Cub  ZpVVDBo*
QLJ20200814Annamae Mayert                00000014000000DRLaborum dolores  leo non sit quam in inventore                                                      Cub  vW3KlLP*
SPU20200814Justina Kirlin                00000000400000CRSuscipit non  lion dolorem quam                                                                     SIMBAExkzKhm*
JIB20200814Julius Champlin               00000000300000CRQui at  leo est temporibus expedita ut consequatur                                                  LEO  oJ9mdUT*
AHE20200814Brooks Stanton                00000000450000CREst debitis  panth reiciendis est voluptas perferendis et expedita                                  LION DXGsVmp*
AOO20200814Sigrid Reinger                00000000480000CRAliquam nostrum  simba quo fugit exercitationem accusamus est voluptas                              PanthghGRs7J*
OPX20200814Patrick Flatley               00000000380000DRImpedit enim  lion quidem non harum aut                                                             CUB  Vckqknr*
TRV20200814Rafael Buckridge              00000004200000DREius laborum  lion et sed accusantium                                                               Simbaykr9kxI*
AXQ20200814Sunny Keeling                 00000003000000DRUt vel  simba cumque iusto et                                                                       LEO  Hsk3Nsq*
MRN20200814Aurelia Muller                00000000394800DREarum aut  cub soluta voluptatibus culpa                                                            PanthvZM1kBI*
CJN20200814Candice McLaughlin            00000007000000CRDicta labore  lion esse molestias aut ab                                                            Cub  UfDFvik*
BMN20200814Elfrieda Keeling              00000004100000DREum voluptas  simba modi quo rerum inventore                                                        Lion enxYuxR*
CJV20200814Adelle Konopelski             00000001010000CREarum reiciendis  simba quisquam enim voluptatem vitae odit                                         Cub  PNXkhMf*
ZJH20200814Zita Satterfield              00000000100000CRAut et  lion necessitatibus mollitia                                                                LEO  kokfqxU*
PGV20200814Garland Welch                 00000000302700DRTempora rerum  panth fugiat est impedit                                                             SimbaAJYQ1Qp*
MZX20200814Rosie Larkin                  00000008000000DRLaborum rerum  panth vitae qui voluptate nihil                                                      SimbajN9SBrX*
WAP20200814Angelina Wintheiser           00000007000000DRUt nihil  cub aliquid veniam eum                                                                    SIMBAMDiK1mo*
EQO20200814Rahul Doyle                   00000000100000CREt et  simba ea odio consequatur hic                                                                LION lBkkDOD*
LPB20200814Keagan Kozey                  00000000300000DRQui voluptate  leo laborum culpa impedit aut ex doloremque deserunt                                 SimbaQD8H9Nt*
ALY20200814Jackie Schoen                 00000000500000DRSimilique ut  cub omnis fugiat laborum in                                                           SIMBAubFLxHM*
IVH20200814Nichole Kassulke              00000000300000CRLaboriosam in  lion molestias atque dolorem autem rerum                                             SimbaIrQfZig*
OKG20200814Johnnie Lehner                00000000360000DREt et  panth exercitationem esse accusamus                                                          PANTHgbIfNJA*
JCN20200814Ewald Macejkovic              00000001730000CRQuod et  cub asperiores ipsa                                                                        Cub  C5YlkVu*
RKP20200814Mavis Stracke                 00000000200000DRDolores maiores  panth et beatae pariatur consequuntur nihil sit                                    Leo  ilVpMxN*
ZZQ20200814Braulio Rempel                00000000110000CRNeque repellendus  leo dolores tenetur ut a quo                                                     PanthBXMQQlq*
SPV20200814Danny Corwin                  00000000100000CRNam ut  lion ex iure maxime autem sit                                                               LION o5MQvkY*
AFU20200814Albert Fritsch                00000000500000CRQuaerat non  cub quod quo porro et                                                                  SIMBAYVDZIkh*
FGZ20200814Keara Dach                    00000000300000DRNon sunt  leo animi minima ut ullam quam                                                            Cub  zHbhgkP*
VJA20200814Lina West                     00000001310000DRAsperiores esse  panth incidunt facilis                                                             PANTHYQjvlgs*
HHB20200814Johann Wuckert                00000008000000DRVoluptate quis  simba enim voluptatem aliquam                                                       Lion wXTrkLK*
AUH20200814Grant Mitchell                00000000800000DRSunt distinctio  lion harum et ullam sed rem ea                                                     PanthZVt1Yps*
QBO20200814Kenny Ratke                   00000000910000CRSint qui  cub reiciendis numquam beatae                                                             CUB  bnY0UxH*
RFO20200814Aryanna andervort             00000010000000DRQuis quasi  simba eos libero quibusdam corrupti numquam                                             SIMBAOykP1kz*
VNY20200814Terrell Schinner              00000001500000CRDolor ipsum  panth laudantium aliquam                                                               SIMBAstdkVxS*
EYP20200814Parker Bahringer              00000004000000DRQuos voluptas  cub ratione autem vel ea et earum                                                    LEO  BgyIkrg*
AQY20200814Stephon Conroy                00000020000000CROmnis ab  cub ex maiores et cupiditate                                                              Leo  kPksPZN*
EPW20200814Marion Reilly                 00000001404400DRDistinctio dolores  panth at iusto eaque cum est                                                    CUB  Nufbqph*
OJM20200814Esther Brown                  00000000990000CRDeserunt ut  lion distinctio voluptatem ut est unde                                                 Lion yqxn8XC*
WTJ20200814Heaven Cassin                 00000001560000CRQuae amet  cub dolor rerum qui aspernatur praesentium                                               SimbaNgFOvmb*
NAL20200814Samantha Fay                  00000001700000CREt quia  simba maiores possimus fugiat iste voluptatem minima                                       CUB  efNSJLP*
ILL20200814Stefanie Runte                00000001900000CRQuia consequatur  panth laboriosam nobis eveniet quibusdam                                          CUB  WHvVxkw*
KPU20200814Jairo Marks                   00000001000000CREt dolor  panth explicabo harum tempora et magni voluptatem                                         PANTHnyp36WZ*
TGB20200814Annamae Osinski               00000000150000CRPlaceat atque  leo veritatis voluptatum dolore repellendus dolore                                   LEO  NKYLcwy*
ZVN20200814Raul Rodriguez                00000000120000CRIn modi  leo expedita natus                                                                         SimbaoTB1PyD*
YAA20200814Easter Schulist               00000005900000DRAutem ipsa  lion autem qui earum tenetur eius                                                       SimbaWsIskNd*
CEF20200814Weston Witting                00000000400000CRBlanditiis voluptatem  cub libero laborum ut                                                        CUB  borXQ0I*
CWC20200814Wyman Ebert                   00000000150000DRSoluta asperiores  lion asperiores culpa voluptatem quisquam et                                     SimbaFkxwQNt*
AJG20200814Pasquale Mertz                00000000370000DRCommodi cupiditate  simba et minus aut sequi ad deleniti                                            SIMBAmoJrYuT*
ARZ20200814Jamal McCullough              00000006000000DRDelectus ea  cub corporis aperiam necessitatibus inventore                                          Leo  GX885nt*
POX20200814Nicholaus Wisozk              00000000500000CRConsequuntur voluptatem  cub consequatur commodi excepturi dolor quia                               LEO  cw1zKmM*
TBL20200814Ettie Sporer                  00000006170000CREst dolorum  leo veritatis quibusdam eveniet velit consequatur                                      SimbaJYgZRSa*
WMK20200814Lola Morissette               00000001500000DRQui ut  cub est sunt unde nihil nihil                                                               Panthb4ghiSW*
EPA20200814Schuyler Schamberger          00000000910000CRAut mollitia  panth ea aut cumque                                                                   PANTHWyI1sYb*
NSS20200814Clyde Howell                  00000001900000CRMaiores suscipit  panth non porro consequuntur                                                      PANTHbB9k1uX*
KAF20200814Doris Grady                   00000000380000DRQuidem sint  lion cupiditate nulla quisquam                                                         LEO  Not0FWo*
YON20200814Jane Tremblay                 00000002900000DRIncidunt cupiditate  leo id quos occaecati                                                          LION pTPu5FL*
ERQ20200814Alba Haag                     00000001230000CRQuo deserunt  cub explicabo quia est non                                                            SIMBAZxkHjBi*
OMO20200814Porter Bartoletti             00000000250000DRDolor enim  panth necessitatibus rerum voluptatem debitis nihil expedita veritatis                  Simbaxn3kSWX*
HJS20200814Morris Hackett                00000003170000DRQui qui  leo quidem sed a                                                                           Cub  Eb90dWx*
RWZ20200814Daphney Fahey                 00000000690000CRNam hic  lion consequatur aut qui delectus distinctio                                               Lion e4lzxME*
GVO20200814Trudie Williamson             00000000300000DRNon ea  lion reprehenderit aut et sed praesentium                                                   LEO  YiqVmVb*
XII20200814Ricky Senger                  00000000150000DRNobis et  leo perspiciatis beatae ex officia                                                        PanthnkTLiJF*
THR20200814Laverne Champlin              00000003000000DRAut aperiam  panth odit est officia quis                                                            PANTHZxQ0JMv*
KDD20200814Brennon Schultz               00000004400000DRQuo quae  leo adipisci iste tempore harum                                                           SimbadS1pCWJ*
SHW20200814Joy Hammes                    00000001000000DRSed quaerat  cub tempore quia et numquam explicabo autem                                            PanthBGNVy3l*
MHP20200814Nick Smith                    00000007000000CRCulpa quam  lion similique ex deleniti reiciendis itaque                                            CUB  pT8LpdK*
BKH20200814Willis Berge                  00000000536400DRTempore in  cub esse repudiandae eveniet exercitationem voluptatem                                  Leo  SNKSsDz*
LKY20200814Uriah Spencer                 00000000200000CRError repellendus  simba suscipit enim nihil distinctio esse                                        Panthdu8DQPU*
SBK20200814Rosemarie Hand                00000005560000DRCommodi ex  lion tempora laudantium                                                                 LEO  OCkNqNb*
CLH20200814Vivienne McDermott            00000003000000CREst porro  lion similique sint quis et                                                              LEO  mzbLxCC*
AVD20200814Hubert Nikolaus               00000001000000CREos voluptatum  simba quis aut quos id voluptatem                                                   PanthMNH1Qor*
OQL20200814Clyde Leannon                 00000000300000DRQui voluptatem  panth ipsam provident perspiciatis                                                  PANTHn3BR0pR*
QAW20200814George Homenick               00000001080000DRQuia velit  simba repellat corrupti vel non et                                                      LEO  ORkvD6p*
GXI20200814Vance Funk                    00000006000000DRMollitia ut  lion ut facere occaecati alias                                                         CUB  qlmFkGA*
DHV20200814Gia Mertz PhD                 00000000460000DREum atque  panth dolores voluptas consequatur enim vel quos est                                     PanthPWllO1w*
GUZ20200814Wilton Hudson                 00000000680000DRLibero atque  simba sed dolor error aut nostrum                                                     Cub  rJlxTFD*
KLR20200814Flavie Hodkiewicz             00000000150000CRRepellendus ipsa  lion esse excepturi aspernatur                                                    SimbaEkf6kYf*
RDJ20200814Nina Langosh                  00000008000000DRRerum fugit  panth aut ipsam                                                                        PanthuWFkR1W*
HXJ20200814Alec Streich                  00000001000000CRAccusantium quas  panth dignissimos id autem                                                        LION KiPDDwi*
GNY20200814Ayana Konopelski              00000000600000CRError at  panth asperiores qui repellendus sit et dolorem                                           Lion pvQB9bD*
VKF20200814Krystal Hayes                 00000000462300CRVoluptas ut  simba sunt dolor                                                                       CUB  Y4V0xta*
GZL20200814Zander Harris PhD             00000000720000DRLaboriosam aliquam  lion aut consequatur quo                                                        LEO  ujxkzVV*
MXV20200814Cordia Wisoky                 00000018750000DRAtque placeat  panth animi veniam iure consequuntur itaque                                          Cub  Wq1P1Nx*
IIL20200814Dario Prosacco                00000000500000DREnim minus  cub est qui                                                                             SIMBAnSHT1rP*
HXK20200814Beulah Mann                   00000010000000DRQuisquam alias  cub quam molestias                                                                  SimbaDo4TuTd*
JJE20200814Minerva Kris PhD              00000000500000DRLabore et  lion ut dolorem quos laudantium aspernatur ipsam ea                                      LEO  gmIRzkB*
WPD20200814Kaycee Klein                  00000015000000DREveniet sunt  lion voluptas ratione mollitia et nostrum qui                                         SIMBASyYQX1g*
KCL20200814Stanford Erdman               00000000220000DRBlanditiis nihil  leo consequatur et sed ducimus delectus sed ullam                                 Cub  lo7uzPA*
TWH20200814Miracle Reichert              00000004000000CRAb ut  cub natus odio dolor                                                                         LION Ph7IfKk*
RDZ20200814Oma Funk                      00000000300000CRDoloremque ea  simba impedit cum reiciendis consequatur autem                                       Lion sCZ3rpY*
OPX20200814Pearl Conn                    00000000500000DRExpedita expedita  simba deserunt quae cumque dolores placeat sit                                   PanthAqKIKDz*
QXE20200814Aracely Kohler                00000000300000CRCumque ea  lion nam non corporis                                                                    SIMBAf1bricO*
CJW20200814Adela Stiedemann              00000015000000DREt sapiente  lion in sint qui ab non dicta aut                                                      SIMBAR0TMIfq*
SSU20200814Kamren Halvorson              00000000450000DREos nam  cub cumque adipisci voluptatem qui reprehenderit                                           LEO  hFGriKX*
PCU20200814Amara Dicki                   00000000180000CRUt sint  leo autem sed incidunt ea                                                                  LEO  LY3rXNr*
YRE20200814Margaret Padberg              00000004300000CRQuam deleniti  cub itaque dolores similique                                                         LEO  k87KYCO*
LLQ20200814Dina Barton                   00000003000000CREst autem  leo fuga maiores ut                                                                      CUB  I8XOWrc*
EJN20200814Rachel Bailey                 00000001200000CROptio eum  cub ipsum adipisci at iure blanditiis et                                                 SimbagrNxWuF*
DLC20200814Abbey Reinger                 00000000182200DREt et  leo saepe velit ea reprehenderit                                                             LION OlCP0dr*
SIR20200814Destany Glover                00000000306000DREaque sequi  leo necessitatibus sunt in                                                             Leo  kVSKgmN*
EFB20200814Kimberly Tillman              00000023000000DRSit qui  simba voluptatem ducimus sunt ea                                                           SimbaP68xFXv*
BAT20200814Wilfred Rath                  00000007000000CROdit architecto  cub quisquam voluptatem veritatis at debitis sint                                  Simbal4ihlnP*
HGP20200814Hipolito Hilpert              00000010000000CREveniet non  cub libero accusamus quidem                                                            PANTHRbIuHTs*
FLK20200814Reva Bergnaum                 00000000387600CRDolor minus  leo dolore nesciunt tenetur in sint est                                                Leo  cD1Vk7I*
PEW20200814Delilah Kreiger               00000001200000DREarum sit  simba maiores distinctio voluptas id distinctio                                          LION TtX1PTi*
WRK20200814Beryl Schowalter              00000000650000DRAut quae  lion quia quod corrupti                                                                   LION nx8xsyF*
JXD20200814Beryl Zboncak                 00000001000000DRAccusantium aspernatur  simba vero labore velit ullam rem                                           SimbaOxdxRxz*
BSG20200814Adela Satterfield             00000000306000DRDolorem dolor  simba asperiores reprehenderit libero voluptas minus sunt                            SIMBAikr5qfV*
CNT20200814Maxie Thiel                   00000003280000CRSit molestias  leo non tempore consequatur illo alias                                               Leo  Ki5JUxe*
CTR20200814Cesar Nolan                   00000000100000CREt totam  cub animi voluptas voluptas quidem vero aut                                               Panthlo6wnxO*
TDE20200814Cassie Abernathy              00000000306000CRHic ipsa  lion voluptatem tenetur sit error architecto                                              CUB  Ov9NmCq*
CJY20200814Marcia Lockman                00000000156400DRMagnam saepe  lion impedit sunt sunt non                                                            PanthabOvxqK*
XEE20200814Theresa Wunsch                00000000150000CRAliquid quisquam  cub iure ut accusantium at                                                        SimbaRsnJGMq*
VMI20200814Gerry Heidenreich             00000000200000DRSaepe blanditiis  leo nam blanditiis possimus impedit provident                                     PANTHmFuolmZ*
BXQ20200814Mafalda Nitzsche              00000000740000CREveniet sit  cub natus sint ea amet                                                                 PANTHEkkvB7k*
KQK20200814Violette Leffler              00000000150000CRIllo sint  panth non nam placeat aliquid praesentium                                                Leo  gNqJoVT*
ZVA20200814Rozella Leffler               00000007000000CRTemporibus consequatur  leo ipsa cumque voluptatibus dicta maxime nesciunt                          LION SL9Gpnb*
RQJ20200814Germaine Huels                00000000700000DRPossimus voluptate  lion voluptas nihil sapiente                                                    Cub  wiXknJT*
EYY20200814Breanna Greenfelder           00000000300000CRUllam molestiae  simba nam ipsam molestiae ab ex dolor                                              CUB  KBBoKkh*
MII20200814Moses Orn                     00000001200000DRNatus illum  lion itaque occaecati tempore distinctio                                               LEO  jxHsqqV*
VYJ20200814Elva Altenwerth               00000010000000CRAut illo  lion voluptas eum voluptas porro                                                          SIMBAGMMZW4y*
TCW20200814Elmore Schowalter             00000001480000DREst incidunt  panth ea natus laborum sint sit autem                                                 SIMBAx6QSszH*
GTK20200814Augusta Ernser                00000003700000CRVoluptatem qui  cub velit impedit quis dolor id possimus                                            SimbaCW5zQxh*
ABA20200814Justice Lockman               00000000100000CRQuas voluptates  panth non magni consequatur quod et atque                                          Leo  v4UdqxI*
WUF20200814Shawn Auer                    00000002000000CRSunt laboriosam  lion eveniet sit fugit nisi                                                        SIMBAP1Px8lf*
MSA20200814Ashley McLaughlin             00000005310000CRQuis ut  panth quisquam aut eos eveniet ullam                                                       CUB  bg11LxH*
OYL20200814Gregg Waters                  00000000510000CREt iste  simba temporibus est quos amet quisquam est                                                CUB  FKDxxsf*
BWA20200814Ruby Aufderhar                00000001500000DRVoluptatum minus  simba enim mollitia nihil atque                                                   SIMBAtNSmnyA*
UUS20200814Alivia Bernhard               00000000180000DRDucimus omnis  panth omnis qui impedit saepe                                                        CUB  L8IFxxu*
FLU20200814Nya Hills                     00000002000000DRDeserunt inventore  lion reiciendis blanditiis dolores quia molestias                               PANTHe9MyJvX*
VOL20200814Jailyn Rodriguez              00000005000000CRAutem pariatur  leo rerum unde dolor necessitatibus quia                                            LEO  DJO17Ur*
LYO20200814Delmer Schowalter             00000000800000CROdio numquam  leo suscipit maxime consequatur perferendis                                           PANTHnUFX9XU*
GXA20200814Damian Quitzon                00000004000000CRAtque et  lion natus rerum                                                                          CUB  SIRd0Tv*
BZE20200814Jeanette Mayer                00000000350000DRExplicabo error  cub voluptatem doloribus et                                                        Leo  lMnNzVK*
AJA20200814Elliot Kovacek                00000001350000DRVoluptatibus officiis  simba id temporibus itaque ex                                                Lion K9xbK9r*
TML20200814Rosemarie Bartell             00000000300000CRTotam rerum  cub quaerat ullam commodi officiis eos ipsam enim                                      PANTHcFoOd5P*
FZM20200814Cassandre Morar               00000004000000DRProvident quas  panth excepturi rerum minima alias aut qui                                          SIMBAZxDWkFq*
QLW20200814Julia Roberts                 00000000340000DRSed nemo  cub praesentium consequatur ducimus aut esse                                              Simbait8wINM*
DGZ20200814Malcolm Botsford              00000002830000DRRepudiandae enim  lion doloremque sequi nesciunt sapiente eum                                       SIMBAKYgwo7a*
BNR20200814Gennaro Huels                 00000006650000CREst quam  lion quos in qui sunt                                                                     Cub  kmFPTKI*
DJD20200814Amely Haag                    00000003000000CRSoluta iusto  leo ut aspernatur enim itaque ut aperiam eos                                          Cub  D1o5Zyr*
GQX20200814Kenny Runolfsdottir           00000002300000CRAssumenda non  panth sit fugit                                                                      Leo  rUx49JS*
VYH20200814Jordon Donnelly               00000000200000DRAliquid quasi  lion voluptas accusamus qui                                                          SIMBAEYhTxTq*
HWR20200814Frank Abbott                  00000000180000DRFugit ipsum  lion nobis id voluptatem unde                                                          LEO  nt6NBgU*
ZWU20200814Glen Davis                    00000005000000DRRerum rerum  panth omnis repellat vitae ut repellendus cum                                          LEO  V1zpXRk*
MTX20200814Jaylan Klein                  00000002000000DROmnis numquam  leo eius consequatur consequuntur est nobis                                          PANTHmCttokD*
RUC20200814Kari Doyle                    00000001750000DROmnis quasi  simba autem architecto nemo dolor non                                                  CUB  Atyf3Gz*
NNB20200814Kareem Bashirian              00000002000000CRSaepe sed  simba ut dolor aut aut nihil                                                             CUB  lbWgMvL*
XCZ20200814Rafael Hilpert                00000001200000CRMagni ducimus  panth natus libero quo                                                               SimbaK9DJqGt*
APD20200814Lois Kreiger                  00000009500000DRConsectetur velit  simba est sequi dolores architecto pariatur id                                   PANTHkkHG1IH*
IIA20200814Gavin Collier                 00000001090000CRVel dolores  lion delectus adipisci laudantium rem                                                  SIMBAPFBxkXo*
QET20200814Devante King                  00000040000000DRImpedit possimus  simba officiis id sunt enim maiores                                               SIMBAoUxMnDX*
YEL20200814Ceasar Homenick               00000001100000CRSoluta alias  simba neque qui provident maiores                                                     LION O6CzU0w*
QHV20200814Royal Kessler                 00000002000000DRAut est  cub nesciunt illo sed                                                                      Leo  kDYTQ6Z*
DTC20200814Tyrell Abernathy              00000001000000CROdio ut  lion placeat earum iusto                                                                   PANTHGhBiude*
UTO20200814Nettie Grimes                 00000001000000CRConsequuntur quos  cub earum deleniti                                                               LION zBFHiUW*
BTK20200814Fay Hudson                    00000000250000DRRerum voluptas  lion pariatur fugit id                                                              SIMBAZblDiCd*
DNJ20200814Triston Hermann               00000011200000CRModi voluptatibus  leo esse totam officia culpa culpa ipsum                                         Simbaqt3SqlZ*
OLP20200814Mandy Lind                    00000000930000CROfficia molestiae  cub sunt et et architecto neque qui                                              Lion Px5mgQf*
APB20200814Louvenia Conn                 00000002580000DRRepudiandae dolorem  leo aliquid alias nemo molestias                                               CUB  d9Mx4kX*
HRR20200814Mario Fritsch                 00000002000000CRAspernatur ut  simba odit esse ducimus iste omnis sit                                               SIMBAATy3tge*
DAW20200814Wendy Friesen                 00000000600000CRProvident ad  cub minima numquam officiis                                                           PanthwTPnFOB*
VBJ20200814Michel Langosh                00000000380000DRPariatur fuga  cub est sequi rem                                                                    PanthO9Bx5Kf*
RNY20200814Sydnie Brekke                 00000000300000DRCommodi et  simba exercitationem quae enim sed                                                      Leo  wUMrVYA*
QBU20200814Mittie Waelchi                00000001700000DRTempore et  lion ut est possimus quis aut deserunt                                                  LEO  GXXkjKn*
UZD20200814Savanna Casper                00000000180000DRInventore aut  panth commodi et deserunt placeat accusantium                                        PANTHpcfZtPG*
NVM20200814Lawrence Beier                00000000420000DRTemporibus iusto  leo dolorem illo explicabo neque repudiandae in                                   PANTHP3Kg7Yu*
ICX20200814Katharina Mante               00000000620000DRFugiat tenetur  panth aut reiciendis quis                                                           SIMBAbtDPmQR*
XBJ20200814Ahmed Kunze                   00000000311200DRBlanditiis qui  panth id id adipisci facere eveniet vel                                             Leo  EQD7Fyt*
WBL20200814Orlo McLaughlin               00000003000000CRNihil cumque  leo occaecati voluptates voluptatem sapiente velit repudiandae                        LEO  lPDV8SM*
ZXS20200814Delmer Gerhold                00000000990000DRLaudantium asperiores  panth ducimus qui quas quod impedit                                          LION UOjOKLb*
CYV20200814Lane Hickle                   00000000600000CREt saepe  lion esse quia maxime qui iure recusandae                                                 LEO  u0pgjML*
QGW20200814Willa Leuschke                00000001138800DRVoluptatem facere  lion natus eaque autem saepe                                                     LEO  OQ8UpKk*
PRO20200814Carlos Legros                 00000005600000DRExercitationem aut  cub quas iure nesciunt repellendus dolorem                                      CUB  tbMnmCC*
BYZ20200814Alena Legros                  00000007000000DREaque similique  cub ea id et velit animi excepturi                                                 SimbaDPNtXbh*
ALW20200814Kennith Powlowski             00000000177000CRConsectetur veritatis  lion voluptatem sit repudiandae consectetur                                  Simbar8CQjdQ*
CDU20200814Duane Morar                   00000001500000CRMaiores ut  panth in quia adipisci aut qui                                                          PanthY7uXFmq*
LOL20200814Baron Haag                    00000000800000DRDolor quia  lion laboriosam qui                                                                     LEO  yzlOGgQ*
GPJ20200814Camryn Kshlerin               00000001043400DRCum eius  panth delectus tenetur quas laudantium aperiam provident                                  PANTHNJkgxOc*
FCY20200814Dylan Schumm                  00000001000000CRUt reiciendis  simba velit qui aut dignissimos                                                      Lion kT3LDTW*
XLG20200814Teagan McDermott              00000003000000DRFugit sed  simba sed vel est sed ut                                                                 PanthVmMUyke*
AYK20200814Kareem Will                   00000000700000DRNon laudantium  lion cupiditate aut recusandae                                                      SIMBAg0osxLI*
VPA20200814Juliet Murphy                 00000001000000CRQuibusdam nam  panth repellat quae deserunt                                                         Cub  OOGk1Np*
JER20200814Yasmin Rodriguez              00000002000000CRQuaerat repudiandae  cub exercitationem esse dolorum hic fugit omnis                                LION pzsV1VJ*
ZHM20200814Donavon Orn                   00000000940000DRQuisquam quis  lion illum et sint doloremque est id                                                 Cub  D1KMthw*
WWV20200814Royal Rosenbaum               00000002000000CRUt nobis  lion dolores ab sed dolores ullam                                                         CUB  uR9wNKA*
RBE20200814Ari Denesik                   00000002670000DREt laboriosam  panth sit qui cupiditate                                                             LION MkWtbxf*
XHW20200814Maximillian Ankunding         00000000630000CRRepudiandae delectus  panth quia et voluptatem error impedit voluptatem quos                        CUB  qWkxJpY*
FAW20200814Keshaun Hermiston             00000001500000DRAccusantium vel  panth cumque dolorem provident rerum ea possimus                                   Cub  Eb7Iutu*
EYC20200814Breana Olson                  00000000500000DRQui labore  lion dolore libero enim suscipit                                                        SIMBAsi7VWOT*
SBZ20200814Dina Purdy                    00000000900000CRIpsam ratione  leo neque quasi voluptates voluptatem quam dicta                                     LEO  E4iKvpd*
FNN20200814Zelda Ankunding               00000000100000DREligendi perferendis  simba saepe veritatis dolores animi ea                                        CUB  gYDZrLZ*
EKP20200814Will Bednar                   00000000170000CRMollitia recusandae  lion suscipit qui sed hic sint recusandae in                                   Cub  QJXtPKh*
RQC20200814Amanda Gislason               00000000400000CRAdipisci repellendus  lion sed corporis cumque repellat asperiores                                  SimbaptoqiDU*
PPP20200814Adrain Ondricka               00000000230000DRNam voluptates  lion vel labore ut voluptatem dolores fugit                                         SimbaS5qX08k*
XLV20200814Annettaolkman                 00000014550000DRSint repellat  leo ratione consequatur                                                              LEO  k4kiWCZ*
LFL20200814Glen Grady                    00000000720000CRBlanditiis earum  lion repellat dolore sint et                                                      PANTHJxUkcth*
SWL20200814Ryley Huel                    00000000350000DRNam est  simba quidem quia repellendus                                                              CUB  fYwlv8H*
WGO20200814Baron Trantow                 00000020000000DRIn consequatur  panth vel nihil sint                                                                LION ARpWhNp*
VTF20200814Quinn Will                    00000000500000CRPlaceat veritatis  simba vero sit et nobis adipisci                                                 Cub  akxGXTW*
USJ20200814Vince Kuphal                  00000023000000CRConsequatur aspernatur  lion aliquam ea sed et voluptas fugit                                       LEO  U06xR7l*
UIL20200814Hugh Kunze                    00000001000000CRIllum voluptatem  cub exercitationem maxime pariatur a                                              Simbaxqnr0YR*
GMC20200814Vida Aufderhar                00000003550000CRRem nulla  panth laudantium distinctio ut                                                           PANTHXxK86Oh*
URS20200814Dimitri Kunze                 00000000110000CRIusto et  cub quasi neque corrupti non ut                                                           CUB  m1OCXiS*
IKB20200814Delphia Senger                00000004000000CRVoluptates repellendus  panth libero omnis iure eos qui vitae                                       CUB  HHLTx5z*
KFD20200814Oscar Zboncak                 00000000900000DRDeleniti dolores  lion voluptatum ut dignissimos ut enim qui                                        Leo  ld3LHQI*
TAR20200814Elbert Donnelly               00000013850000CRDoloremque nisi  simba voluptatem libero                                                            Cub  IcI9L8w*
JKS20200814Vinnie Skiles                 00000005000000DRDoloremque aut  leo aut quos repellat                                                               Lion zLxJWNZ*
PAJ20200814Allisonandervort              00000004700000DREos hic  simba ipsam id aut ut                                                                      CUB  RPscN0o*
KVG20200814Meda Prosacco                 00000000225000CRConsequatur aut  cub autem tenetur aut aliquam quia libero quisquam                                 PANTHyQ3ZiXY*
EWP20200814Paul Leffler                  00000000300000DRConsequuntur repudiandae  lion fuga consequuntur                                                    LION CRPVxlx*
LGU20200814Guido Goyette                 00000003000000DRNon esse  lion dolorem omnis vero nihil est explicabo                                               SIMBAb1PxKrW*
ANB20200814Alene Cronin                  00000001370000CRInventore modi  cub velit cupiditate et inventore libero                                            Leo  MNkUWcq*
ZUD20200814Beau McDermott                00000001250000CRNihil non  simba et omnis recusandae dolorem                                                        Cub  kWI4zbC*
UXV20200814Maci Legros                   00000000140000CRQuia fugit  simba quidem distinctio enim facilis veniam                                             SIMBAGxCbtyg*
GRJ20200814Rosa Schiller                 00000006000000DRAutem modi  panth et eum adipisci quaerat                                                           SimbaeqiqnJG*
XOO20200814Chanel Bernier                00000005000000DRQuo qui  leo eligendi eius dolorum repudiandae vero officiis voluptatem                             SIMBAGR4tBCq*
ANR20200814Wellington Rohan              00000002000000CRAccusantium et  panth alias consequatur                                                             SIMBAdMdIrZT*
WBS20200814Alison Morar                  00000000900000DREt qui  cub distinctio ullam ea                                                                     CUB  RZ3jFim*
KEO20200814Brigitte Jenkins              00000001500000CRArchitecto optio  cub at sed error veritatis aut accusamus                                          Leo  nvHIv6V*
UXP20200814Phyllis Kirlin                00000010000000DRDoloribus natus  lion autem voluptatem voluptas                                                     PANTHSz5Fzbi*
IRB20200814Anabel OHara                  00000050270000CRVoluptas quia  simba excepturi suscipit                                                             Simbai1hgj1V*
ASE20200814Emerson Skiles                00000002000000CRSit ut  cub molestiae earum ut sed                                                                  Leo  BQbffdl*
EYJ20200814Hailie Skiles                 00000000350000DREsse et  lion ea deleniti et expedita sint culpa                                                    Leo  n3VQr0T*
QRA20200814Spencer Gleichner             00000000230000DRUnde illo  simba ea eos sit sequi architecto                                                        Lion WFCO9Ub*
IAK20200814Emilia Frami                  00000001000000DRIure dolor  simba autem impedit recusandae                                                          Lion osqQMxS*
RFP20200814Mercedes Gibson               00000000280000CRNon repellendus  lion libero amet veritatis molestias                                               PANTHFftz7qm*
LFM20200814Sophie Graham                 00000004000000DRIn nobis  panth eaque tempore quae accusamus nam                                                    Leo  dlkZlQF*
OBO20200814Mireya Cassin                 00000000100000DRNeque adipisci  leo rerum cum                                                                       PanthOIqbdpo*
IOT20200814Maverick Hansen               00000000762300CRNon quia  cub dignissimos et velit rerum voluptatum                                                 LEO  nVpuQkG*
RPF20200814Sadye Ullrich                 00000014000000CRHarum consequatur  panth commodi quaerat enim iure minima non                                       Leo  KxvINDu*
JQG20200814Odell Renner                  00000002700000CRDelectus ea  panth nihil ipsum dolorem aspernatur ut excepturi                                      Cub  yogToPZ*
WBF20200814Linnea Willms                 00000000220000CRSunt aut  leo quidem quod earum ut iure                                                             SIMBAPd7y7wz*
ORE20200814Pamela Bednar                 00000002520000DRMinus est  cub consequuntur et autem sed sed                                                        SIMBAw1SkQzC*
INM20200814Vergie Glover                 00000001840000DRVoluptas et  simba incidunt accusantium iste velit adipisci nihil                                   SimbaZDvVzcn*
MGL20200814Gregory Boehm PhD             00000000200000CRUt voluptate  cub id dolor                                                                          LEO  auCgxpV*
ZZA20200814Antoinette Bernier            00000001000000CRFacere occaecati  leo voluptatem officiis omnis                                                     PanthCkH04Dn*
MSJ20200814Odessa Mertz                  00000000450000CRVoluptas atque  lion qui similique adipisci                                                         Simbas7Zc1uI*
FUZ20200814Barney Bruen                  00000000200000DRDolores quod  simba nesciunt qui atque ex voluptatem dolorem ipsa                                   LEO  QqGy5Wm*
CZM20200814Shanel Nicolas                00000000130000DRVoluptatibus blanditiis  simba aut placeat et non asperiores                                        CUB  hG8zSkT*
MHP20200814Reba Hegmann                  00000005000000CRConsequatur aut  panth error consequatur                                                            PANTHJGzLGzk*
HHL20200814Colton Price                  00000050000000DRVelit voluptas  simba quaerat possimus est voluptatem repellat                                      PanthyjkUfTB*
MMH20200814Lacy Lind                     00000000350000CRCulpa tempora  panth reiciendis non quia in                                                         CUB  Dzs3P5t*
XCZ20200814Otha Bahringer                00000000315400DRAutem cupiditate  panth et animi sed illum sint vel velit                                           Leo  r6okznJ*
ILC20200814Yasmeen Auer                  00000001100000DRItaque a  lion eius facere et accusamus                                                             LION Brxxyji*
JXL20200814Matilda Lueilwitz             00000000157400CRAspernatur eos  panth veniam necessitatibus a culpa dolor                                           LION o0hzMqJ*
HRA20200814Orville Mraz                  00000001700000CRSed earum  leo facilis quia quod tempore dolor atque                                                LION SFHxTJo*
NXK20200814Francis Kertzmann             00000000100000CRDucimus temporibus  leo et est eos dolore                                                           LEO  dOowIdJ*
MBX20200814Rogers Friesen                00000001000000DRExpedita quis  leo veritatis sit ut quis neque enim tenetur                                         CUB  M1ixZYf*
KQU20200814Elnora Brekke PhD             00000000225900DRCorporis voluptates  simba nostrum iure consequatur commodi quae mollitia                           PANTHkxx4nkQ*
QSY20200814Darius Bayer                  00000000110000DRDolorum molestias  leo voluptate eius est sed et vero                                               PANTHJLk5uKs*
VGZ20200814Fritz Schmeler                00000000590000CRCorrupti quaerat  panth consequatur ipsa excepturi                                                  Leo  rnKswcM*
HWI20200814Theresa Spencer PhD           00000000200000CRNon a  leo dolorum rerum nesciunt molestias quia                                                    PanthBZx3PJn*
LCE20200814Jace Rutherford               00000001300000CRQuo necessitatibus  simba consequatur blanditiis iusto ratione                                      LION iv5LwxH*
UCB20200814Scarlett Barton               00000001000000DRVoluptate perferendis  panth aspernatur dolorem corporis quia                                       Cub  RlHloxb*
IVX20200814Alexandra Greenfelder         00000000300000CRDoloribus in  simba ipsa quia non delectus                                                          Leo  mr7MtST*
IRR20200814Donald Emard                  00000004610000CRNumquam numquam  leo minus aut                                                                      PANTHODgdycq*
GNO20200814Keagan Schmeler               00000003000000CRRepellat illo  simba consectetur ducimus ut                                                         Simbaa1QlWIJ*
IEC20200814Zelda Ryan                    00000000150000DRAdipisci voluptates  panth tempora accusamus non                                                    LION Sxh5lub*
IOD20200814Geovany Quigley               00000000150000CRConsequatur alias  cub odit alias ducimus mollitia ut voluptatem                                    PanthjGhN1OR*
RNB20200814Chasity Howell                00000001700000CRTempore in  lion ut maiores quod fugiat quia                                                        SIMBAP5CDxkp*
MHN20200814Frances Goyette               00000002800000DROdit alias  leo eum nam amet repellendus                                                            PantheDZCpZF*
KCZ20200814Viola Ziemann                 00000000300000CRIste eligendi  cub atque ut est recusandae                                                          PanthBt6h7kc*
IIL20200814Tom Flatley                   00000000800000DROmnis id  panth voluptates molestias sed asperiores ipsam cumque sed                                Leo  j0Cl3nW*
CFX20200814Christelle Tremblay           00000024000000DREst qui  cub ratione magni facilis alias beatae quis                                                CUB  J70SkRg*
NDE20200814Neha Lueilwitz                00000005500000DRSed dolor  cub illo praesentium voluptate                                                           LEO  zgGro5H*
QFY20200814Shayne Jakubowski             00000005066400DREst tenetur  leo laudantium dolorum et ea                                                           Leo  YDt3t9r*
HRI20200814Anabel Koelpin                00000000150000DRExpedita voluptatem  panth quis quis fuga temporibus                                                LEO  qxyLnSI*
ZFA20200814Patience Green                00000000293600DRQuisquam ut  cub ut rerum beatae                                                                    SIMBAFoy5P1t*
KJJ20200814Amelia Grant                  00000000500000DRDeserunt odio  panth quis illo perferendis                                                          SIMBAnkUWkHB*
FOV20200814Anthony Satterfield           00000001300000CRVeniam adipisci  simba inventore nemo recusandae quibusdam eum repellat                             Leo  M9Xsxdw*
QRV20200814Maverick Runolfsdottir        00000001800000CROccaecati perferendis  lion vitae debitis mollitia amet facilis                                     Cub  voFFSFV*
ISH20200814Dominic Turner                00000000500000DRAt possimus  panth expedita corporis fugit sit deserunt                                             SIMBADQO8JHf*
VYM20200814Gust Hamill                   00000000300000DRPerspiciatis modi  panth sunt doloribus quidem rerum provident consequatur                          Leo  royOlND*
CTY20200814Tanya Bradtke                 00000000700000CRQuisquam possimus  cub at perferendis eum fugiat facere maxime                                      LEO  OvS08Ou*
KCO20200814Garrison Davis                00000000770000DRRatione eos  panth ipsa natus consequatur ea maiores                                                SIMBAfHhpNdX*
JFN20200814Kaitlyn Bahringer             00000000300000DRRecusandae sit  simba ut reiciendis non voluptatum                                                  Cub  LNBgCIq*
RVU20200814Kamren Wiza                   00000000300000DRAccusantium dolores  simba consectetur quaerat quo est iste                                         Simbam6mVD1M*
DFD20200814Juston Macejkovic             00000000610000DRHic fuga  cub sit inventore et architecto nesciunt                                                  LION VqGZPut*
IZX20200814Sophia Casper                 00000002000000CREst praesentium  lion natus aut assumenda aperiam esse et                                           Leo  iX0GyZI*
TQD20200814Cassidy Harris                00000000189200CREt voluptate  lion voluptatem sequi neque hic sint sint                                             LEO  G8vtmlm*
MYZ20200814Magali Barton                 00000000500000DRCorrupti dolor  cub sit officia quo maxime                                                          Leo  a3pMUnI*
JES20200814Reina Zieme                   00000000100000CRAut aut  leo possimus quas perspiciatis consectetur et facilis commodi                              LION G9jdZ6t*
GYU20200814Josiah Brekke                 00000000280000CRQuia praesentium  cub sit et occaecati                                                              SimbaldvBXtU*
SOR20200814Colten Hilpert                00000002400000DRIpsam aut  cub rerum excepturi nihil temporibus eum qui                                             SIMBANNBBxvu*
ISR20200814Minerva Stehr                 00000001500000DRConsequuntur reiciendis  cub aperiam aut quia tempora nesciunt                                      CUB  zqxroFE*
OVJ20200814Herbert Schmidt               00000000540000CRDolores hic  lion ut voluptas nisi                                                                  Leo  C8IP8Qi*
KVZ20200814Tristian Gusikowski           00000000630000CRVelit quis  lion dolores temporibus quia velit nisi voluptas ullam                                  SimbagSsdkcI*
XYM20200814Jorge Hahn                    00000002680000DRRem animi  panth odit est                                                                           Leo  IqTkRmb*
RFH20200814Stephen Ferry                 00000003004700CRArchitecto in  leo non explicabo necessitatibus                                                     LEO  b0Z4klM*
QCN20200814Ona Johns                     00000000450000DRAtque omnis  lion cum et facere non fuga officia                                                    PANTHThLKuLo*
CDC20200814Brenna Harber                 00000000300000DRAnimi in  lion distinctio voluptas sequi adipisci ab                                                SimbahfYrkCH*
MME20200814Alexander Medhurst            00000002000000CRQuia quis  lion dolorum ea voluptas et et voluptate autem                                           CUB  G8Jk0Id*
ESW20200814Anne Bahringer                00000000150000DRQui sit  leo eligendi est                                                                           SIMBAgx18uiP*
AXQ20200814Eleonore Grimes               00000003330000CRFugit unde  panth totam enim sunt quidem et                                                         LION PkWwkkh*
INL20200814Krystel Wilkinson             00000000600000CRQuia et  lion odit omnis saepe nihil                                                                PANTHhZkdRiV*
DOS20200814Raymundo Kemmer               00000000280000DREsse beatae  simba delectus dolorem repellat ipsa                                                   CUB  D1kgwkj*
AOM20200814FrancescaonRueden             00000002300000DRSed sint  simba voluptatibus velit fugiat exercitationem sit                                        SimbacXntfkB*
BPR20200814Jenifer Cummings              00000000300000DRUt molestiae  panth ducimus qui rem                                                                 Leo  TTvCQ3j*
ZLP20200814Parker Stracke                00000001500000DRQuasi eum  lion velit commodi incidunt                                                              Lion mhPVTWL*
SWS20200814Thomas Stehr                  00000003620000DRQuaerat consectetur  lion accusamus itaque doloribus velit qui                                      PanthW314XYv*
ZVF20200814Zelmaolkman                   00000000190000CRMolestiae dolore  panth et magni sunt corporis                                                      CUB  ebjX8vE*
BMO20200814Christelle Lueilwitz          00000000740000DROmnis nemo  lion odio doloribus accusamus consequatur et                                            SIMBAUSfS3kd*
GQO20200814Myrna Kuhlman                 00000000730000CRMinima quos  simba accusamus cupiditate corrupti autem neque                                        LION fxHlLxU*
ABD20200814Krystina Mann                 00000000110000CRAd accusantium  panth aliquid et voluptatibus voluptas blanditiis natus                             SIMBATQx1LYi*
MWK20200814Florine Russel                00000000150000CRAsperiores et  simba maxime accusantium enim                                                        Lion c8bRukI*
QDO20200814Andrew Lowe                   00000000300000CRQuia voluptates  lion placeat et nulla                                                              Leo  XbItp0z*
ZHB20200814Quinn Hahn                    00000020000000CREst fugiat  cub eos vel maxime maxime praesentium accusamus perspiciatis                            Cub  pw366mV*
JOZ20200814Jovani Blanda                 00000000360000CRNesciunt et  simba esse minima ut excepturi                                                         PANTHOUxGc7q*
JRP20200814Marcos Kovacek                00000002300000CRProvident magnam  leo dolores corrupti                                                              PanthjB5t0BC*
VSW20200814Ulises Swaniawski             00000006000000CRVoluptatum fugiat  panth fuga quod minima repellendus                                               PanthFrkzroc*
OLD20200814Savannah Price                00000000142500DRDolores eum  lion odio est                                                                          SimbazxULo0K*
CJC20200814Natalia Walter                00000015000000DREum blanditiis  simba dolores dolorem omnis sed dignissimos                                         CUB  IBZ7UTg*
GMW20200814Camila Kessler                00000000150000CRCorrupti eos  lion ex consectetur aut                                                               Lion vF77yDY*
HHC20200814Madisen Kshlerin              00000003000000DRVoluptate at  leo et explicabo omnis aut in distinctio                                              PanthKdIkYwa*
DDR20200814Chelsie Boyer                 00000000300000CRAperiam provident  leo eum rerum tenetur quas perspiciatis vel                                      Leo  hdK0PoC*
MHR20200814Bridget Oberbrunner           00000005100000DREos neque  lion libero odio et                                                                      LEO  THxN9Qy*
YKI20200814Theresia Gulgowski            00000000500000DRSunt animi  leo sequi consequatur                                                                   Cub  kvDQ3lY*
AZM20200814Thurman Wyman                 00000005500000CRCorrupti nesciunt  simba accusamus sunt deleniti sint quis placeat doloribus                        Lion EfZ4UOt*
EJJ20200814Aiden Grant                   00000001270000CRVelit temporibus  lion et aut neque nesciunt deleniti quis                                          LION ufFCDsJ*
FYB20200814Maverick Marquardt            00000000250000DRMaxime eos  lion sit excepturi odio accusantium neque                                               Lion IQxDLSi*
MFL20200814Anastasia Nienow              00000001120000CRMollitia ut  simba nulla placeat distinctio                                                         Cub  xxurFON*
MGF20200814Berenice Kub                  00000010000000DRA itaque  panth et est sit omnis expedita                                                           SimbaEC6p5Xv*
CUA20200814Della Kris                    00000000100000DRNobis sit  lion at rem perspiciatis ut                                                              LEO  sSJyQwO*
LAY20200814Solon Schamberger             00000000680000DRVitae provident  cub tenetur suscipit amet dolorum numquam sapiente                                 SIMBARzwfR1v*
ZMR20200814Kacey Murphy                  00000000160000DRConsequuntur sed  panth ut praesentium suscipit corporis quasi                                      Cub  jgZOVCY*
JUV20200814Sigmund Herman PhD            00000000200000CRSimilique nostrum  panth qui laboriosam quae aut sit                                                LION CHuuNxc*
BGZ20200814Emmitt Ondricka               00000000500000CREaque quisquam  panth accusantium ut nesciunt occaecati praesentium a                               PanthrypmQoA*
YNY20200814Laverna Ondricka              00000000350000DRAliquam corrupti  simba repellat non illum fugiat omnis ut                                          Lion F14nDrb*
OCN20200814Otha Corwin                   00000000740000DROmnis doloribus  cub officiis voluptas                                                              PANTHiJvB7bF*
OEO20200814Jennyfer Kirlin               00000000200000CRQuam reprehenderit  leo id eos aspernatur numquam mollitia consequatur                              SIMBAMx0cwkn*
SBA20200814Loyal Boehm                   00000007000000DRAut omnis  lion deserunt voluptatem ipsam itaque ut                                                 Lion fKmSkwG*
KYZ20200814Chris Mante                   00000001000000CRMinus fugiat  cub eligendi ducimus eligendi quia doloribus fugiat                                   PanthXkfNhKw*
LTM20200814Michele Heathcote             00000001000000DRCulpa fugit  simba in quis in eveniet                                                               LEO  tyOkNIH*
MAE20200814Callie Tromp                  00000001000000DRFacilis voluptas  lion minima beatae numquam eveniet commodi dolores natus                          SIMBAFg79Mly*
ORM20200814Alfreda Baumbach PhD          00000000420000DRDeserunt consectetur  lion illum reiciendis dolorem                                                 Lion lfDHKrD*
NIH20200814Kathlyn Kertzmann             00000006000000DRMaiores deserunt  lion sapiente aspernatur                                                          LION Qr4cupk*
OXW20200814Delores Kulas                 00000000500000CRNatus et  cub magnam sit numquam fugit                                                              LEO  sZ1msOC*
UNY20200814Eleonore Sanford              00000001100000DRReprehenderit deserunt  leo placeat quia praesentium animi                                          PANTHGs4OOwb*
UWR20200814Louie Willms                  00000001890000CRLabore quod  cub odio dolorum enim cum saepe                                                        SIMBAthUVxvX*
TWG20200814Darrion Wiegand               00000001500000DRCupiditate nihil  lion molestiae amet hic                                                           Lion CiQ8jQe*
WAY20200814Kaden Block                   00000009550000DRUt itaque  simba fugiat tenetur rem expedita                                                        PanthbU4zoFO*
XXJ20200814Giovanni Larkin               00000002570000CRNihil quod  lion rerum nam consequuntur                                                             SimbaKSDkkJv*
LWE20200814Emmanuel Bergstrom            00000000340000CRMolestias doloremque  simba sapiente eum aperiam                                                    SimbagwxkdZK*
LIB20200814Devonte Gleichner             00000076000000DRQuia voluptatem  leo molestiae illum deserunt tenetur tempora consequatur qui                       LEO  K0oHv1o*
PFV20200814Alfred Lebsack                00000001000000DRVoluptates quis  simba quidem perspiciatis qui voluptatibus molestiae                               PANTHrCMS7wP*
MNX20200814Armani Dach                   00000006000000DRFugiat est  lion nemo beatae debitis doloremque                                                     LEO  RsOsSJi*
XLH20200814Jaunita Hermiston             00000000600000CRConsequatur fugiat  lion neque quod nisi cum                                                        CUB  yxoyY6L*
QYI20200814Margarett Rogahn              00000000150000DREligendi voluptas  lion velit ad velit quis                                                         PANTHX7v1kkg*
XFB20200814Macy Jerde                    00000000550000CRDolorum aut  panth modi recusandae                                                                  Leo  o8k3PjP*
RWZ20200814Tyrese Wolff                  00000000500000DRPerferendis qui  panth doloremque vel et laboriosam illo                                            CUB  P4ZPxDs*
UGV20200814Warren Johnson                00000005000000DRDolorem earum  leo similique ut quibusdam omnis sunt                                                PanthajzruNG*
UEK20200814Makenzie Koelpin              00000002300000CRCulpa quasi  leo amet voluptatem asperiores voluptas optio porro quidem                             SIMBAMmY1ivc*
IAC20200814Rafael Jacobson               00000000500000DRDeserunt officiis  cub qui alias aliquid pariatur qui reprehenderit pariatur                        LEO  dgZzgLD*
OBY20200814Alaina Rutherford             00000034000000DRQui non  panth temporibus laboriosam ad sit voluptas                                                LEO  S9XZQ0q*
ADS20200814Rebekah Cummings              00000000150000DRSoluta et  simba sint veritatis debitis autem aperiam ipsum                                         Leo  fZxkCxR*
JHT20200814Judson Carroll                00000000250000CRAmet et  panth molestiae ipsa est voluptas                                                          CUB  OVowgts*
BPF20200814Davonte Mosciski              00000016100000CRDignissimos culpa  leo qui qui perspiciatis                                                         SimbagMsDTfE*
VDB20200814Keanu Hill                    00000073300000DRVel sit  lion tempora ut et eum ut in                                                               CUB  DpsT34x*
YOI20200814Cassandre Murphy              00000000200000CROdio ad  lion sit velit earum reprehenderit aliquam                                                 PANTHmxuCrgM*
VVJ20200814Fannie Kuhn                   00000001070000DRVelit ea  simba minus vel molestiae                                                                 CUB  OlnWo5g*
BWI20200814Monserrat Cummings            00000000150000DREt beatae  simba impedit voluptate adipisci quis consequatur repellendus                            Cub  jxFBDNC*
YEO20200814Easton Hill                   00000000390000DROmnis facere  cub et adipisci                                                                       LEO  VFXtOZh*
BWJ20200814Rigoberto Kiehn               00000014000000DREligendi incidunt  lion quaerat repudiandae magni                                                   PanthxHrjt1I*
PFL20200814Keeley Turner                 00000000100000DRQuis occaecati  leo omnis sapiente ex                                                               LEO  HTDDcLo*
FNV20200814German White                  00000002210000CRAlias soluta  lion commodi sunt dolor                                                               LEO  gfikkJT*
KCC20200814Marcelina Kunde               00000005000000CRDolore totam  cub dolorem saepe et                                                                  PANTHJGIS6Hi*
ZRP20200814Asha Harvey                   00000000800000DREsse voluptas  cub ut aspernatur recusandae accusamus                                               LION m5onYxN*
SQH20200814Catherine Senger              00000001260000CRQuaerat nihil  lion sunt natus est iste eos                                                         SIMBAVGj3w9l*
GIL20200814Frank Balistreri              00000001500000DRDeserunt molestiae  leo eligendi occaecati hic ratione ducimus                                      Leo  oHXCyxO*
UZB20200814Xavier Konopelski             00000003000000DRVoluptas sequi  cub esse error                                                                      LION X6x7h1f*
KSF20200814Lysanne Langworth             00000000900000DRQui a  lion non neque                                                                               LEO  ozxvigP*
ORR20200814Rita Toy                      00000002000000CREveniet doloremque  simba velit quod labore nam aut tempora                                         CUB  BhxPjHv*
JWZ20200814Vella Johns                   00000001450000DRCumque illo  panth id ullam sed cum                                                                 SimbaqF0cspC*
GKK20200814Vilma Brakus                  00000000800000DRMagni voluptas  lion doloremque culpa ratione iste itaque placeat                                   Cub  DxFNlyk*
HXG20200814German Reinger                00000020000000CRSint asperiores  panth enim officia laboriosam laudantium tempore                                   CUB  sLYkShS*
ELM20200814Bernhard Sawayn               00000007667000DRAut ducimus  cub illo officiis voluptas aliquid at nemo ad                                          Lion JbkdWyi*
WPA20200814Easton Bednar                 00000003500000DRNon et  lion et et ullam natus                                                                      LION qxcOFlG*
PAG20200814Marisol Prohaska              00000000200000DRDucimus est  simba quis reprehenderit non atque error culpa quia                                    Leo  EirJBGm*
OGQ20200814Eloise Heaney                 00000000420000DRUt illum  lion earum iusto velit illo ab                                                            SIMBAi16jkiC*
KTL20200814Jed Hane                      00000000390000CRSunt quos  cub laudantium sed et                                                                    SimbaXx1WYKo*
CAZ20200814Harmony Schneider             00000012000000CRNihil consectetur  lion sed quia hic assumenda perferendis quae                                     Cub  ozKkgYC*
LSA20200814Floy Howe                     00000005000000CRVoluptatem ea  cub atque id cupiditate similique nostrum                                            LEO  YBRPR0z*
IRP20200814Freida Klein                  00000010000000DRVoluptas ullam  panth ipsa consequatur placeat quia excepturi aperiam                               SIMBAq6IUiOA*
UNJ20200814Horace Kshlerin               00000000620000CRDolores nesciunt  cub voluptas consectetur dolorem voluptas                                         SIMBAJLiMBTb*
SYR20200814Junius Bechtelar              00000000400000CRVelit temporibus  lion maxime quia ipsam                                                            LION ogkPVoF*
BNN20200814Reuben Purdy                  00000000600000CRPossimus rerum  leo placeat est ratione est totam                                                   Lion GF8vGmv*
HSR20200814Selmer Lynch                  00000000100000DRMinima quo  lion rerum temporibus error occaecati                                                   SIMBAfnnpxRB*
VWG20200814Dayana Bradtke                00000001250000CRInventore quaerat  panth quo non magnam nihil distinctio                                            CUB  CcQOckp*
UOD20200814Laila Kohler                  00000001200000CRVoluptates ut  simba est repudiandae ut alias natus quasi                                           SimbanxMV7qH*
EPA20200814Bertrand Bayer                00000001500000DRImpedit blanditiis  panth eum et praesentium iure dolorem                                           PANTHXrtLxxb*
JDT20200814Rowena Reichert               00000001490000DRAssumenda inventore  leo error commodi odio et quibusdam                                            SimbajUzLoxS*
EVL20200814Berta Bergnaum                00000000600000DRDignissimos quod  leo tenetur est possimus provident nisi                                           CUB  OW5gzjo*
QJR20200814Devyn Bogan                   00000001000000CREt aspernatur  lion labore magnam rerum est voluptatem dolor nemo                                   LEO  bkYmJKK*
SII20200814Jerrold DAmore                00000002000000DRIusto deleniti  simba et omnis ut reprehenderit                                                     Cub  XZFfLdc*
SLY20200814Larue Watsica                 00000001600000CRId aliquam  cub molestias voluptatem dolores nulla veniam veniam                                    PanthcG50p4G*
BZG20200814Twila Olson                   00000000620000DREt fugiat  panth sit et ducimus eum                                                                 SIMBAHxQ6sLd*
QNG20200814Nicholas Hartmann             00000000670000DRUt quaerat  simba expedita voluptatem facilis                                                       Cub  sUoUmrQ*
SXC20200814Margie Reichert               00000001800000DRAut eaque  lion consequuntur quos ipsam doloribus molestias                                         Cub  OB46x1x*
TGI20200814Skylar Stracke                00000003500000CRQuia architecto  leo ad dolor voluptatem pariatur animi fugiat                                      Panthnn5hynK*
VCC20200814Tyson Kirlin                  00000000500000DRVelit officiis  cub tenetur earum aut ad quia                                                       CUB  YPxMO7c*
JDU20200814Florian Little                00000001300000CRQuis quia  lion est et deleniti ipsa aut                                                            SIMBAp70fX8U*
GYD20200814Mariano Torphy                00000002510000DRBlanditiis a  simba ut rem ducimus                                                                  CUB  Tpb6isi*
YMX20200814Aric Green                    00000001000000DRHic quibusdam  simba suscipit omnis inventore assumenda nobis iusto                                 Lion rv0kt8F*
UIQ20200814Lavern Pfannerstill           00000001240000CRQuibusdam quos  lion ipsum nostrum eos magnam quia deleniti                                         SimbaS6qxr3v*
NYL20200814CedrickonRueden               00000002700000CRIncidunt nesciunt  panth est laborum ex ea omnis nemo                                               SIMBAmQcD1OL*
